:100000003488C47C012D0100DD0900000706A4002E
:100010000358211D3CCA018502000000400000FE7B
:100020004700000100040D00FFFC00000000005428
:10003000000306090C0F1215181B1E21262B302851
:1000400000000000000000083E050000000000E87D
:10005000CB060000000000C88D0A0000000000A8C8
:100060004F0E00000000009800000000000000A0FB
:1000700065000000000000A8BC000000000000B007
:100080000B010000000000B85A010000000000C091
:10009000AA010000000000C831020000000000D0EA
:1000A000AC020000000000D81B030000000000E0CC
:1000B0008A030000000000E8E9030000000000F0EF
:1000C00044040000000000F8970400000000000055
:1000D000EB040000000000650000000000000001CB
:1000E0000101010101010101010101010101010100
:1000F00001010101010101010101010101010101F0
:1001000001010101010101010101010101010101DF
:1001100001010101010101010101010101010101CF
:1030D00001010101010101010101010101010100E1
:1030E00000000000000000000000000000000000E0
:1030F00000000000000000000000000000000000D0
:1031000000000000000000000000000000000000BF
:1031100000000000000000000000000000000000AF
:1034D00000000000000000000000000000000002EA
:1034E00002020202020202020202020202020202BC
:1034F00002020202020202020202020202020202AC
:10350000020202020202020202020202020202029B
:10351000020202020202020202020202020202028B
:1064D000020202020202020202020202020202009E
:1064E00000000000000000000000000000000000AC
:1064F000000000000000000000000000000000009C
:10650000000000000000000000000000000000008B
:10651000000000000000000000000000000000007B
:10652000000000000000000000000000000000006B
:10653000000000000000000000000000000000005B
:10654000000000000000000000000000000000004B
:10655000000000000000000000000000000000003B
:10656000000000000000000000000000000000002B
:10657000000000000000000000000000000000001B
:10658000000000000000000000000000000000000B
:1065900000000000000000000000000000000000FB
:1065A00000000000000000000000000000000000EB
:1065B00000000000000000000000000000000000DB
:1065C00000000000000000000000000000000000CB
:1065D0000000000000000000000000000000005764
:1065E00000000000000000010101010101010101A2
:1065F000010101010101010101010101010101018B
:10660000010101010101010101010101010101017A
:10661000010101010101010101010101010101016A
:10662000010101010101010101010101010101015A
:108EE000010101010101010000000000000000007B
:108EF0000000000000000000000000000000000072
:108F00000000000000000000000000000000000061
:108F10000000000000000000000000000000000051
:108F20000000000000000000000000000000000041
:1092E000000000000000000202020202020202026C
:1092F000020202020202020202020202020202024E
:10930000020202020202020202020202020202023D
:10931000020202020202020202020202020202022D
:10932000020202020202020202020202020202021D
:10BBE0000202020202020200000000000000000047
:10BBF0000000000000000000000000000000000045
:10BC00000000000000000000000000000000000034
:10BC10000000000000000000000000000000000024
:10BC20000000000000000000000000000000000014
:10BC30000000000000000000000000000000000004
:10BC400000000000000000000000000000000000F4
:10BC500000000000000000000000000000000000E4
:10BC600000000000000000000000000000000000D4
:10BC700000000000000000000000000000000000C4
:10BC800000000000000000000000000000000000B4
:10BC900000000000000000000000000000000000A4
:10BCA0000000000000000000000000000000000094
:10BCB0000000000000000000000000000000000084
:10BCC0000000000000000000000000000000000074
:10BCD0000000000000000000000000000000000064
:10BCE000000000000000004F000000000000000104
:10BCF0000101010101010101010101010101010134
:10BD00000101010101010101010101010101010123
:10BD10000101010101010101010101010101010113
:10BD20000101010101010101010101010101010103
:10E1E0000101010101010101010101010101010020
:10E1F000000000000000000000000000000000001F
:10E20000000000000000000000000000000000000E
:10E2100000000000000000000000000000000000FE
:10E2200000000000000000000000000000000000EE
:10E5E0000000000000000000000000000000000229
:10E5F00002020202020202020202020202020202FB
:10E6000002020202020202020202020202020202EA
:10E6100002020202020202020202020202020202DA
:10E6200002020202020202020202020202020202CA
:020000021000EC
:100AE00002020202020202020202020202020200E8
:100AF00000000000000000000000000000000000F6
:100B000000000000000000000000000000000000E5
:100B100000000000000000000000000000000000D5
:100B200000000000000000000000000000000000C5
:100B300000000000000000000000000000000000B5
:100B400000000000000000000000000000000000A5
:100B50000000000000000000000000000000000095
:100B60000000000000000000000000000000000085
:100B70000000000000000000000000000000000075
:100B80000000000000000000000000000000000065
:100B90000000000000000000000000000000000055
:100BA0000000000000000000000000000000000045
:100BB0000000000000000000000000000000000035
:100BC0000000000000000000000000000000000025
:100BD0000000000000000000000000000000000015
:100BE0000000000000000000000000000000004FB6
:100BF00000000000000000010101010101010101EC
:100C000001010101010101010101010101010101D4
:100C100001010101010101010101010101010101C4
:100C200001010101010101010101010101010101B4
:100C300001010101010101010101010101010101A4
:1030F00001010101010101000000000000000000C9
:1031000000000000000000000000000000000000BF
:1031100000000000000000000000000000000000AF
:10312000000000000000000000000000000000009F
:10313000000000000000000000000000000000008F
:1034F00000000000000000020202020202020202BA
:10350000020202020202020202020202020202029B
:10351000020202020202020202020202020202028B
:10352000020202020202020202020202020202027B
:10353000020202020202020202020202020202026B
:1059F0000202020202020200000000000000000099
:105A00000000000000000000000000000000000096
:105A10000000000000000000000000000000000086
:105A20000000000000000000000000000000000076
:105A30000000000000000000000000000000000066
:105A40000000000000000000000000000000000056
:105A50000000000000000000000000000000000046
:105A60000000000000000000000000000000000036
:105A70000000000000000000000000000000000026
:105A80000000000000000000000000000000000016
:105A90000000000000000000000000000000000006
:105AA00000000000000000000000000000000000F6
:105AB00000000000000000000000000000000000E6
:105AC00000000000000000000000000000000000D6
:105AD00000000000000000000000000000000000C6
:105AE00000000000000000000000000000000000B6
:105AF0000000000000000050000000000000000155
:105B00000101010101010101010101010101010185
:105B10000101010101010101010101010101010175
:105B20000101010101010101010101010101010165
:105B30000101010101010101010101010101010155
:1076F000010101010101010101010101010101007B
:107700000000000000000000000000000000000079
:107710000000000000000000000000000000000069
:107720000000000000000000000000000000000059
:107730000000000000000000000000000000000049
:107AF0000000000000000000000000000000000185
:107B00000101010101010101010101010101010165
:107B10000101010101010101010101010101010155
:107B20000101010101010101010101010101010145
:107B30000101010101010101010101010101010135
:1080F000010101010101010101010101010101026F
:10810000020202020202020202020202020202024F
:10811000020202020202020202020202020202023F
:10812000020202020202020202020202020202022F
:10813000020202020202020202020202020202021F
:10A2F0000202020202020202020202020202020040
:10A30000000000000000000000000000000000004D
:10A31000000000000000000000000000000000003D
:10A32000000000000000000000000000000000002D
:10A33000000000000000000000000000000000001D
:10AAF00000000000000000000000000000000087CF
:10AB0000000000000000000101010101010101013C
:10AB10000101010101010101010101010101010125
:10AB20000101010101010101010101010101010115
:10AB30000101010101010101010101010101010105
:10AB400001010101010101010101010101010101F5
:10C300000101010101010100000000000000000026
:10C31000000000000000000000000000000000001D
:10C32000000000000000000000000000000000000D
:10C3300000000000000000000000000000000000FD
:10C3400000000000000000000000000000000000ED
:10C700000000000000000001010101010101010120
:10C710000101010101010101010101010101010109
:10C7200001010101010101010101010101010101F9
:10C7300001010101010101010101010101010101E9
:10C7400001010101010101010101010101010101D9
:10CA0000010101010101010202020202020202020D
:10CA100002020202020202020202020202020202F6
:10CA200002020202020202020202020202020202E6
:10CA300002020202020202020202020202020202D6
:10CA400002020202020202020202020202020202C6
:10E5000002020202020202000000000000000000FD
:10E5100000000000000000000000000000000000FB
:10E5200000000000000000000000000000000000EB
:10E5300000000000000000000000000000000000DB
:10E5400000000000000000000000000000000000CB
:10F0000000000000000000010101010101010101F7
:10F0100001010101010101010101010101010101E0
:10F0200001010101010101010101010101010101D0
:10F0300001010101010101010101010101010101C0
:10F0400001010101010101010101010101010101B0
:020000022000DC
:1008000001010101010101000000000000000000E1
:1008100000000000000000000000000000000000D8
:1008200000000000000000000000000000000000C8
:1008300000000000000000000000000000000000B8
:1008400000000000000000000000000000000000A8
:100C000000000000000000010101010101010101DB
:100C100001010101010101010101010101010101C4
:100C200001010101010101010101010101010101B4
:100C300001010101010101010101010101010101A4
:100C40000101010101010101010101010101010194
:100F000001010101010101020202020202020202C8
:100F100002020202020202020202020202020202B1
:100F200002020202020202020202020202020202A1
:100F30000202020202020202020202020202020291
:100F40000202020202020202020202020202020281
:102A000002020202020202000000000000000000B8
:102A100000000000000000000000000000000000B6
:102A200000000000000000000000000000000000A6
:102A30000000000000000000000000000000000096
:102A40000000000000000000000000000000000086
:10320000000000000000007B000000000000000142
:10321000010101010101010101010101010101019E
:10322000010101010101010101010101010101018E
:10323000010101010101010101010101010101017E
:10324000010101010101010101010101010101016E
:10470000010101010101010101010101010101009A
:104710000000000000000000000000000000000099
:104720000000000000000000000000000000000089
:104730000000000000000000000000000000000079
:104740000000000000000000000000000000000069
:104B000000000000000000000000000000000001A4
:104B10000101010101010101010101010101010185
:104B20000101010101010101010101010101010175
:104B30000101010101010101010101010101010165
:104B40000101010101010101010101010101010155
:104E00000101010101010101010101010101010291
:104E10000202020202020202020202020202020272
:104E20000202020202020202020202020202020262
:104E30000202020202020202020202020202020252
:104E40000202020202020202020202020202020242
:10660000020202020202020202020202020202006C
:10661000000000000000000000000000000000007A
:10662000000000000000000000000000000000006A
:10663000000000000000000000000000000000005A
:10664000000000000000000000000000000000004A
:10710000000000000000000000000000000000017E
:10711000010101010101010101010101010101015F
:10712000010101010101010101010101010101014F
:10713000010101010101010101010101010101013F
:10714000010101010101010101010101010101012F
:10860000010101010101010101010101010101005B
:10861000000000000000000000000000000000005A
:10862000000000000000000000000000000000004A
:10863000000000000000000000000000000000003A
:10864000000000000000000000000000000000002A
:108A00000000000000000000000000000000000165
:108A10000101010101010101010101010101010146
:108A20000101010101010101010101010101010136
:108A30000101010101010101010101010101010126
:108A40000101010101010101010101010101010116
:108D00000101010101010101010101010101010252
:108D10000202020202020202020202020202020233
:108D20000202020202020202020202020202020223
:108D30000202020202020202020202020202020213
:108D40000202020202020202020202020202020203
:10A50000020202020202020202020202020202002D
:10A51000000000000000000000000000000000003B
:10A52000000000000000000000000000000000002B
:10A53000000000000000000000000000000000001B
:10A54000000000000000000000000000000000000B
:10AD00000000000000000000000000000000006FD4
:10AD1000000000000000000101010101010101012A
:10AD20000101010101010101010101010101010113
:10AD30000101010101010101010101010101010103
:10AD400001010101010101010101010101010101F3
:10AD500001010101010101010101010101010101E3
:10C210000101010101010100000000000000000017
:10C22000000000000000000000000000000000000E
:10C2300000000000000000000000000000000000FE
:10C2400000000000000000000000000000000000EE
:10C2500000000000000000000000000000000000DE
:10C610000000000000000002020202020202020208
:10C6200002020202020202020202020202020202EA
:10C6300002020202020202020202020202020202DA
:10C6400002020202020202020202020202020202CA
:10C6500002020202020202020202020202020202BA
:10DB100002020202020202000000000000000000F7
:10DB200000000000000000000000000000000000F5
:10DB300000000000000000000000000000000000E5
:10DB400000000000000000000000000000000000D5
:10DB500000000000000000000000000000000000C5
:10E6100000000000000000010101010101010101F1
:10E6200001010101010101010101010101010101DA
:10E6300001010101010101010101010101010101CA
:10E6400001010101010101010101010101010101BA
:10E6500001010101010101010101010101010101AA
:10FB100001010101010101000000000000000000DE
:10FB200000000000000000000000000000000000D5
:10FB300000000000000000000000000000000000C5
:10FB400000000000000000000000000000000000B5
:10FB500000000000000000000000000000000000A5
:10FF100000000000000000020202020202020202CF
:10FF200002020202020202020202020202020202B1
:10FF300002020202020202020202020202020202A1
:10FF40000202020202020202020202020202020291
:10FF50000202020202020202020202020202020281
:020000023000CC
:1014100002020202020202000000000000000000BE
:1014200000000000000000000000000000000000BC
:1014300000000000000000000000000000000000AC
:10144000000000000000000000000000000000009C
:10145000000000000000000000000000000000008C
:101C1000000000000000006F000000000000000154
:101C200001010101010101010101010101010101A4
:101C30000101010101010101010101010101010194
:101C40000101010101010101010101010101010184
:101C50000101010101010101010101010101010174
:1031100001010101010101010101010101010100A0
:10312000000000000000000000000000000000009F
:10313000000000000000000000000000000000008F
:10314000000000000000000000000000000000007F
:10315000000000000000000000000000000000006F
:1035100000000000000000000000000000000002A9
:10352000020202020202020202020202020202027B
:10353000020202020202020202020202020202026B
:10354000020202020202020202020202020202025B
:10355000020202020202020202020202020202024B
:104A10000202020202020202020202020202020078
:104A20000000000000000000000000000000000086
:104A30000000000000000000000000000000000076
:104A40000000000000000000000000000000000066
:104A50000000000000000000000000000000000056
:10551000000000000000000000000000000000018A
:10552000010101010101010101010101010101016B
:10553000010101010101010101010101010101015B
:10554000010101010101010101010101010101014B
:10555000010101010101010101010101010101013B
:106A10000101010101010101010101010101010067
:106A20000000000000000000000000000000000066
:106A30000000000000000000000000000000000056
:106A40000000000000000000000000000000000046
:106A50000000000000000000000000000000000036
:106E10000000000000000000000000000000000270
:106E20000202020202020202020202020202020242
:106E30000202020202020202020202020202020232
:106E40000202020202020202020202020202020222
:106E50000202020202020202020202020202020212
:10831000020202020202020202020202020202003F
:10832000000000000000000000000000000000004D
:10833000000000000000000000000000000000003D
:10834000000000000000000000000000000000002D
:10835000000000000000000000000000000000001D
:108B10000000000000000000000000000000005FF6
:108B2000000000000000000101010101010101013C
:108B30000101010101010101010101010101010125
:108B40000101010101010101010101010101010115
:108B50000101010101010101010101010101010105
:108B600001010101010101010101010101010101F5
:109C2000010101010101010000000000000000002D
:109C30000000000000000000000000000000000024
:109C40000000000000000000000000000000000014
:109C50000000000000000000000000000000000004
:109C600000000000000000000000000000000000F4
:10A02000000000000000000202020202020202021E
:10A030000202020202020202020202020202020200
:10A0400002020202020202020202020202020202F0
:10A0500002020202020202020202020202020202E0
:10A0600002020202020202020202020202020202D0
:10B120000202020202020200000000000000000011
:10B13000000000000000000000000000000000000F
:10B1400000000000000000000000000000000000FF
:10B1500000000000000000000000000000000000EF
:10B1600000000000000000000000000000000000DF
:10BC2000000000000000000101010101010101010B
:10BC300001010101010101010101010101010101F4
:10BC400001010101010101010101010101010101E4
:10BC500001010101010101010101010101010101D4
:10BC600001010101010101010101010101010101C4
:10CD200001010101010101000000000000000000FC
:10CD300000000000000000000000000000000000F3
:10CD400000000000000000000000000000000000E3
:10CD500000000000000000000000000000000000D3
:10CD600000000000000000000000000000000000C3
:10D1200000000000000000020202020202020202ED
:10D1300002020202020202020202020202020202CF
:10D1400002020202020202020202020202020202BF
:10D1500002020202020202020202020202020202AF
:10D16000020202020202020202020202020202029F
:10E2200002020202020202000000000000000000E0
:10E2300000000000000000000000000000000000DE
:10E2400000000000000000000000000000000000CE
:10E2500000000000000000000000000000000000BE
:10E2600000000000000000000000000000000000AE
:10EA2000000000000000005B00000000000000018A
:10EA300001010101010101010101010101010101C6
:10EA400001010101010101010101010101010101B6
:10EA500001010101010101010101010101010101A6
:10EA60000101010101010101010101010101010196
:10FA200001010101010101010101010101010100C7
:10FA300000000000000000000000000000000000C6
:10FA400000000000000000000000000000000000B6
:10FA500000000000000000000000000000000000A6
:10FA60000000000000000000000000000000000096
:10FE200000000000000000000000000000000002D0
:10FE300002020202020202020202020202020202A2
:10FE40000202020202020202020202020202020292
:10FE50000202020202020202020202020202020282
:10FE60000202020202020202020202020202020272
:020000024000BC
:100E200002020202020202020202020202020200A4
:100E300000000000000000000000000000000000B2
:100E400000000000000000000000000000000000A2
:100E50000000000000000000000000000000000092
:100E60000000000000000000000000000000000082
:1019200000000000000000000000000000000001B6
:101930000101010101010101010101010101010197
:101940000101010101010101010101010101010187
:101950000101010101010101010101010101010177
:101960000101010101010101010101010101010167
:102920000101010101010101010101010101010098
:102930000000000000000000000000000000000097
:102940000000000000000000000000000000000087
:102950000000000000000000000000000000000077
:102960000000000000000000000000000000000067
:102D200000000000000000000000000000000002A1
:102D30000202020202020202020202020202020273
:102D40000202020202020202020202020202020263
:102D50000202020202020202020202020202020253
:102D60000202020202020202020202020202020243
:103D20000202020202020202020202020202020075
:103D30000000000000000000000000000000000083
:103D40000000000000000000000000000000000073
:103D50000000000000000000000000000000000063
:103D60000000000000000000000000000000000053
:104520000000000000000000000000000000005338
:104530000000000000000001010101010101010172
:10454000010101010101010101010101010101015B
:10455000010101010101010101010101010101014B
:10456000010101010101010101010101010101013B
:10457000010101010101010101010101010101012B
:105330000101010101010100000000000000000066
:10534000000000000000000000000000000000005D
:10535000000000000000000000000000000000004D
:10536000000000000000000000000000000000003D
:10537000000000000000000000000000000000002D
:105730000000000000000002020202020202020257
:105740000202020202020202020202020202020239
:105750000202020202020202020202020202020229
:105760000202020202020202020202020202020219
:105770000202020202020202020202020202020209
:10653000020202020202020000000000000000004D
:10654000000000000000000000000000000000004B
:10655000000000000000000000000000000000003B
:10656000000000000000000000000000000000002B
:10657000000000000000000000000000000000001B
:107030000000000000000001010101010101010147
:107040000101010101010101010101010101010130
:107050000101010101010101010101010101010120
:107060000101010101010101010101010101010110
:107070000101010101010101010101010101010100
:107E3000010101010101010000000000000000003B
:107E40000000000000000000000000000000000032
:107E50000000000000000000000000000000000022
:107E60000000000000000000000000000000000012
:107E70000000000000000000000000000000000002
:10823000000000000000000202020202020202022C
:10824000020202020202020202020202020202020E
:1082500002020202020202020202020202020202FE
:1082600002020202020202020202020202020202EE
:1082700002020202020202020202020202020202DE
:109030000202020202020200000000000000000022
:109040000000000000000000000000000000000020
:109050000000000000000000000000000000000010
:109060000000000000000000000000000000000000
:1090700000000000000000000000000000000000F0
:1098300000000000000000530000000000000001D4
:109840000101010101010101010101010101010108
:1098500001010101010101010101010101010101F8
:1098600001010101010101010101010101010101E8
:1098700001010101010101010101010101010101D8
:10A63000010101010101010101010101010101000B
:10A64000000000000000000000000000000000000A
:10A6500000000000000000000000000000000000FA
:10A6600000000000000000000000000000000000EA
:10A6700000000000000000000000000000000000DA
:10AA30000000000000000000000000000000000214
:10AA400002020202020202020202020202020202E6
:10AA500002020202020202020202020202020202D6
:10AA600002020202020202020202020202020202C6
:10AA700002020202020202020202020202020202B6
:10B8300002020202020202020202020202020200EA
:10B8400000000000000000000000000000000000F8
:10B8500000000000000000000000000000000000E8
:10B8600000000000000000000000000000000000D8
:10B8700000000000000000000000000000000000C8
:10C3300000000000000000000000000000000001FC
:10C3400001010101010101010101010101010101DD
:10C3500001010101010101010101010101010101CD
:10C3600001010101010101010101010101010101BD
:10C3700001010101010101010101010101010101AD
:10D1300001010101010101010101010101010100E0
:10D1400000000000000000000000000000000000DF
:10D1500000000000000000000000000000000000CF
:10D1600000000000000000000000000000000000BF
:10D1700000000000000000000000000000000000AF
:10D5300000000000000000000000000000000002E9
:10D5400002020202020202020202020202020202BB
:10D5500002020202020202020202020202020202AB
:10D56000020202020202020202020202020202029B
:10D57000020202020202020202020202020202028B
:10E3300002020202020202020202020202020200BF
:10E3400000000000000000000000000000000000CD
:10E3500000000000000000000000000000000000BD
:10E3600000000000000000000000000000000000AD
:10E37000000000000000000000000000000000009D
:10EB30000000000000000000000000000000005382
:10EB400000000000000000010101010101010101BC
:10EB500001010101010101010101010101010101A5
:10EB60000101010101010101010101010101010195
:10EB70000101010101010101010101010101010185
:10EB80000101010101010101010101010101010175
:10F9400001010101010101000000000000000000B0
:10F9500000000000000000000000000000000000A7
:10F960000000000000000000000000000000000097
:10F970000000000000000000000000000000000087
:10F980000000000000000000000000000000000077
:10FD400000000000000000020202020202020202A1
:10FD50000202020202020202020202020202020283
:10FD60000202020202020202020202020202020273
:10FD70000202020202020202020202020202020263
:10FD80000202020202020202020202020202020253
:020000025000AC
:100B40000202020202020200000000000000000097
:100B50000000000000000000000000000000000095
:100B60000000000000000000000000000000000085
:100B70000000000000000000000000000000000075
:100B80000000000000000000000000000000000065
:101640000000000000000001010101010101010191
:10165000010101010101010101010101010101017A
:10166000010101010101010101010101010101016A
:10167000010101010101010101010101010101015A
:10168000010101010101010101010101010101014A
:102440000101010101010100000000000000000085
:10245000000000000000000000000000000000007C
:10246000000000000000000000000000000000006C
:10247000000000000000000000000000000000005C
:10248000000000000000000000000000000000004C
:102840000000000000000002020202020202020276
:102850000202020202020202020202020202020258
:102860000202020202020202020202020202020248
:102870000202020202020202020202020202020238
:102880000202020202020202020202020202020228
:10364000020202020202020000000000000000006C
:10365000000000000000000000000000000000006A
:10366000000000000000000000000000000000005A
:10367000000000000000000000000000000000004A
:10368000000000000000000000000000000000003A
:103E400000000000000000783E0500000000008037
:103E50006F05000000000088990500000000009038
:103E6000BF05000000000098E5050000000000A06C
:103E700002060000000000A81B060000000000B0C1
:103E800031060000000000B847060000000000C036
:103E90005D060000000000C873060000000000D0AE
:103EA00089060000000000D89F060000000000E026
:103EB000B506000000000031000000000000000016
:103EC00000000000000000000000000000000100F1
:103ED00000000000000000000000000000000000E2
:103EE00000000000000000000000000000000000D2
:103EF00000000000000000000000000000000000C2
:103F000000000000000000000000000000000000B1
:103F100000000000000000000000000000000000A1
:103F20000000000000000000000000000000000091
:103F30000000000000000000000000000000000081
:103F40000000000000000000000000000000000071
:103F50000000000000000000000000000000000061
:103F60000000000000000000000000000000000051
:103F70000000000000000000000000000000000041
:103F80000000000000000000000000000000000031
:103F90000000000000000000000000000000000021
:103FA000000000000000000000000000000000020F
:103FB0000000000000000000000000000000000001
:103FC00000000000000000000000000000000100F0
:103FD00000000000000000000000000000000000E1
:103FE00000000000000000000000000000000000D1
:103FF00000000000000000000000000000000000C1
:1040000000000000000000000000000000000000B0
:1040100000000000000000000000000000000000A0
:104020000000000000000000000000000000000090
:104030000000000000000000000000000000000080
:104040000000000000000000000000000000000070
:104050000000000000000000000000000000000060
:104060000000000000000000000000000000000050
:104070000000000000000000000000000000000040
:104080000000000000000000000000000000000030
:104090000000000000000000000000000000000020
:1040A000000000000000000000000000000000020E
:1040B0000000000000000000000000000000000000
:1040C00000000000000000000000000000000100EF
:1040D00000000000000000000000000000000000E0
:1040E00000000000000000000000000000000000D0
:1040F00000000000000000000000000000000000C0
:1041000000000000000000000000000000000000AF
:10411000000000000000000000000000000000009F
:10412000000000000000000000000000000000008F
:10413000000000000000000000000000000000007F
:10414000000000000000000000000000000000006F
:10415000000000000000000000000000000000005F
:10416000000000000000000000000000000000004F
:10417000000000000000000000000000000000003F
:10418000000000000000000000000000000000002F
:10419000000000000000000000000000000000001F
:1041A000000000000000000000000000000000020D
:1041B00000000000000000000000000000000000FF
:1041C00000000000000000000000000000000100EE
:1041D00000000000000000000000000000000000DF
:1041E00000000000000000000000000000000000CF
:1041F00000000000000000000000000000000000BF
:1042000000000000000000000000000000000000AE
:10421000000000000000000000000000000000009E
:10422000000000000000000000000000000000008E
:10423000000000000000000000000000000000007E
:10424000000000000000000000000000000000006E
:10425000000000000000000000000000000000005E
:10426000000000000000000000000000000000004E
:10427000000000000000000000000000000000003E
:10428000000000000000000000000000000000002E
:10429000000000000000000000000000000000001E
:1042A000000000000000000000000000000000020C
:1042B00000000000000000000000000000000000FE
:1042C00000000000000000000000000000000100ED
:1042D00000000000000000000000000000000000DE
:1042E00000000000000000000000000000000000CE
:1042F00000000000000000000000000000000000BE
:1043000000000000000000000000000000000000AD
:10431000000000000000000000000000000000009D
:10432000000000000000000000000000000000008D
:10433000000000000000000000000000000000007D
:10434000000000000000000000000000000000006D
:10435000000000000000000000000000000000005D
:10436000000000000000000000000000000000004D
:10437000000000000000000000000000000000003D
:10438000000000000000000000000000000000002D
:10439000000000000000000000000000000000001D
:1043A000000000000000000000000000000000020B
:1043B00000000000000000000000000000000000FD
:1043C00000000000000000000000000000000100EC
:1043D00000000000000000000000000000000000DD
:1043E00000000000000000000000000000000000CD
:1043F00000000000000000000000000000000000BD
:1044000000000000000000000000000000000000AC
:10441000000000000000000000000000000000009C
:10442000000000000000000000000000000000008C
:10443000000000000000000000000000000000007C
:10444000000000000000000000000000000000006C
:10445000000000000000000000000000000000005C
:10446000000000000000000000000000000000004C
:10447000000000000000000000000000000000003C
:10448000000000000000000000000000000000002C
:10449000000000000000000000000000000000001C
:1044A000000000000000000000000000000000020A
:1044B00000000000000000000000000000000000FC
:1044C00000000000000000000000000000010100EA
:1044D00000000000000000000000000000000000DC
:1044E00000000000000000000000000000000000CC
:1044F00000000000000000000000000000000000BC
:1045000000000000000000000000000000000000AB
:10451000000000000000000000000000000000009B
:10452000000000000000000000000000000000008B
:10453000000000000000000000000000000000007B
:10454000000000000000000000000000000000006B
:10455000000000000000000000000000000000005B
:10456000000000000000000000000000000000004B
:10457000000000000000000000000000000000003B
:10458000000000000000000000000000000000002B
:10459000000000000000000000000000000000001B
:1045A0000000000000000000000000000000000209
:1045B00000000000000000000000000000000000FB
:1045C00000000000000000000000000000010100E9
:1045D00000000000000000000000000000000000DB
:1045E00000000000000000000000000000000000CB
:1045F00000000000000000000000000000000000BB
:1046000000000000000000000000000000000000AA
:10461000000000000000000000000000000000009A
:10462000000000000000000000000000000000008A
:10463000000000000000000000000000000000007A
:10464000000000000000000000000000000000006A
:10465000000000000000000000000000000000005A
:10466000000000000000000000000000000000004A
:10467000000000000000000000000000000000003A
:10468000000000000000000000000000000000002A
:10469000000000000000000000000000000000001A
:1046A0000000000000000000000000000000000208
:1046B00002000000000000000000000000000000F8
:1046C00000000000000000000000000000010100E8
:1046D00000000000000000000000000000000000DA
:1046E00000000000000000000000000000000000CA
:1046F00000000000000000000000000000000000BA
:1047000000000000000000000000000000000000A9
:104710000000000000000000000000000000000099
:104720000000000000000000000000000000000089
:104730000000000000000000000000000000000079
:104740000000000000000000000000000000000069
:104750000000000000000000000000000000000059
:104760000000000000000000000000000000000049
:104770000000000000000000000000000000000039
:104780000000000000000000000000000000000029
:104790000000000000000000000000000000000019
:1047A0000000000000000000000000000000000207
:1047B00002000000000000000000000000000000F7
:1047C00000000000000000000000000000010100E7
:1047D00000000000000000000000000000000000D9
:1047E00000000000000000000000000000000000C9
:1047F00000000000000000000000000000000000B9
:1048000000000000000000000000000000000000A8
:104810000000000000000000000000000000000098
:104820000000000000000000000000000000000088
:104830000000000000000000000000000000000078
:104840000000000000000000000000000000000068
:104850000000000000000000000000000000000058
:104860000000000000000000000000000000000048
:104870000000000000000000000000000000000038
:104880000000000000000000000000000000000028
:104890000000000000000000000000000000000018
:1048A0000000000000000000000000000000000206
:1048B00002020000000000000000000000000000F4
:1048C00000000000000000000000000000010100E6
:1048D00000000000000000000000000000000000D8
:1048E00000000000000000000000000000000000C8
:1048F00000000000000000000000000000000000B8
:1049000000000000000000000000000000000000A7
:104910000000000000000000000000000000000097
:104920000000000000000000000000000000000087
:104930000000000000000000000000000000000077
:104940000000000000000000000000000000000067
:104950000000000000000000000000000000000057
:104960000000000000000000000000000000000047
:104970000000000000000000000000000000000037
:104980000000000000000000000000000000000027
:104990000000000000000000000000000000000017
:1049A0000000000000000000000000000000000205
:1049B00002020000000000000000000000000000F3
:1049C00000000000000000000000000000010100E5
:1049D00000000000000000000000000000000000D7
:1049E00000000000000000000000000000000000C7
:1049F00000000000000000000000000000000000B7
:104A000000000000000000000000000000000000A6
:104A10000000000000000000000000000000000096
:104A20000000000000000000000000000000000086
:104A30000000000000000000000000000000000076
:104A40000000000000000000000000000000000066
:104A50000000000000000000000000000000000056
:104A60000000000000000000000000000000000046
:104A70000000000000000000000000000000000036
:104A80000000000000000000000000000000000026
:104A90000000000000000000000000000000000016
:104AA0000000000000000000000000000000000204
:104AB00002020000000000000000000000000000F2
:104AC00000000000000000000000000000010100E4
:104AD00000000000000000000000000000000000D6
:104AE00000000000000000000000000000000000C6
:104AF00000000000000000000000000000000000B6
:104B000000000000000000000000000000000000A5
:104B10000000000000000000000000000000000095
:104B20000000000000000000000000000000000085
:104B30000000000000000000000000000000000075
:104B40000000000000000000000000000000000065
:104B50000000000000000000000000000000000055
:104B60000000000000000000000000000000000045
:104B70000000000000000000000000000000000035
:104B80000000000000000000000000000000000025
:104B90000000000000000000000000000000000015
:104BA0000000000000000000000000000000000203
:104BB00002020200000000000000000000000000EF
:104BC00000000000000000000000000001010100E2
:104BD00000000000000000000000000000000000D5
:104BE00000000000000000000000000000000000C5
:104BF00000000000000000000000000000000000B5
:104C000000000000000000000000000000000000A4
:104C10000000000000000000000000000000000094
:104C20000000000000000000000000000000000084
:104C30000000000000000000000000000000000074
:104C40000000000000000000000000000000000064
:104C50000000000000000000000000000000000054
:104C60000000000000000000000000000000000044
:104C70000000000000000000000000000000000034
:104C80000000000000000000000000000000000024
:104C90000000000000000000000000000000000014
:104CA0000000000000000000000000000000000202
:104CB00002020200000000000000000000000000EE
:104CC00000000000000000000000000001010100E1
:104CD00000000000000000000000000000000000D4
:104CE00000000000000000000000000000000000C4
:104CF00000000000000000000000000000000000B4
:104D000000000000000000000000000000000000A3
:104D10000000000000000000000000000000000093
:104D20000000000000000000000000000000000083
:104D30000000000000000000000000000000000073
:104D40000000000000000000000000000000000063
:104D50000000000000000000000000000000000053
:104D60000000000000000000000000000000000043
:104D70000000000000000000000000000000000033
:104D80000000000000000000000000000000000023
:104D90000000000000000000000000000000000013
:104DA0000000000000000000000000000000000201
:104DB00002020200000000000000000000000000ED
:104DC00000000000000000000000000101010100DF
:104DD00000000000000000000000000000000000D3
:104DE00000000000000000000000000000000000C3
:104DF00000000000000000000000000000000000B3
:104E000000000000000000000000000000000000A2
:104E10000000000000000000000000000000000092
:104E20000000000000000000000000000000000082
:104E30000000000000000000000000000000000072
:104E40000000000000000000000000000000000062
:104E50000000000000000000000000000000000052
:104E60000000000000000000000000000000000042
:104E70000000000000000000000000000000000032
:104E80000000000000000000000000000000000022
:104E90000000000000000000000000000000000012
:104EA0000000000000000000000000000000000200
:104EB00002020202000000000000000000000000EA
:104EC00000000000000000000000000101010100DE
:104ED00000000000000000000000000000000000D2
:104EE00000000000000000000000000000000000C2
:104EF00000000000000000000000000000000000B2
:104F000000000000000000000000000000000000A1
:104F10000000000000000000000000000000000091
:104F20000000000000000000000000000000000081
:104F30000000000000000000000000000000000071
:104F40000000000000000000000000000000000061
:104F50000000000000000000000000000000000051
:104F60000000000000000000000000000000000041
:104F70000000000000000000000000000000000031
:104F80000000000000000000000000000000000021
:104F90000000000000000000000000000000000011
:104FA00000000000000000000000000000000002FF
:104FB00002020202000000000000000000000000E9
:104FC00000000000000000000000000101010100DD
:104FD00000000000000000000000000000000000D1
:104FE00000000000000000000000000000000000C1
:104FF00000000000000000000000000000000000B1
:1050000000000000000000000000000000000000A0
:105010000000000000000000000000000000000090
:105020000000000000000000000000000000000080
:105030000000000000000000000000000000000070
:105040000000000000000000000000000000000060
:105050000000000000000000000000000000000050
:105060000000000000000000000000000000000040
:105070000000000000000000000000000000000030
:105080000000000000000000000000000000000020
:105090000000000000000000000000000000000010
:1050A00000000000000000000000000000000002FE
:1050B00002020202020000000000000000000000E6
:1050C00000000000000000000000010101010100DB
:1050D00000000000000000000000000000000000D0
:1050E00000000000000000000000000000000000C0
:1050F00000000000000000000000000000000000B0
:10510000000000000000000000000000000000009F
:10511000000000000000000000000000000000008F
:10512000000000000000000000000000000000007F
:10513000000000000000000000000000000000006F
:10514000000000000000000000000000000000005F
:10515000000000000000000000000000000000004F
:10516000000000000000000000000000000000003F
:10517000000000000000000000000000000000002F
:10518000000000000000000000000000000000001F
:10519000000000000000000000000000000000000F
:1051A00000000000000000000000000000000002FD
:1051B00002020202020101010000000000000000E2
:1051C00000000000000000000001010101010100D9
:1051D00000000000000000000000000000000000CF
:1051E00000000000000000000000000000000000BF
:1051F00000000000000000000000000000000000AF
:10520000000000000000000000000000000000009E
:10521000000000000000000000000000000000008E
:10522000000000000000000000000000000000007E
:10523000000000000000000000000000000000006E
:10524000000000000000000000000000000000005E
:10525000000000000000000000000000000000004E
:10526000000000000000000000000000000000003E
:10527000000000000000000000000000000000002E
:10528000000000000000000000000000000000001E
:10529000000000000000000000000000000000000E
:1052A00000000000000000000000000000000002FC
:1052B00002020202020201010000000000000000E0
:1052C00000000000000000000001010101010100D8
:1052D00000000000000000000000000000000000CE
:1052E00000000000000000000000000000000000BE
:1052F00000000000000000000000000000000000AE
:10530000000000000000000000000000000000009D
:10531000000000000000000000000000000000008D
:10532000000000000000000000000000000000007D
:10533000000000000000000000000000000000006D
:10534000000000000000000000000000000000005D
:10535000000000000000000000000000000000004D
:10536000000000000000000000000000000000003D
:10537000000000000000000000000000000000002D
:10538000000000000000000000000000000000001D
:10539000000000000000000000000000000000000D
:1053A00000000000000000000000000000000002FB
:1053B00002020202020202010000000000000000DE
:1053C00000000000000000000001010101010100D7
:1053D00000000000000000000000000000000000CD
:1053E00000000000000000000000000000000000BD
:1053F00000000000000000000000000000000000AD
:10540000000000000000000000000000000000009C
:10541000000000000000000000000000000000008C
:10542000000000000000000000000000000000007C
:10543000000000000000000000000000000000006C
:10544000000000000000000000000000000000005C
:10545000000000000000000000000000000000004C
:10546000000000000000000000000000000000003C
:10547000000000000000000000000000000000002C
:10548000000000000000000000000000000000001C
:10549000000000000000000000000000000000000C
:1054A00000000000000000000000000000000002FA
:1054B00002020202020202020001000000000000DB
:1054C00000000000000000000101010101010100D5
:1054D00000000000000000000000000000000000CC
:1054E00000000000000000000000000000000000BC
:1054F00000000000000000000000000000000000AC
:10550000000000000000000000000000000000009B
:10551000000000000000000000000000000000008B
:10552000000000000000000000000000000000007B
:10553000000000000000000000000000000000006B
:10554000000000000000000000000000000000005B
:10555000000000000000000000000000000000004B
:10556000000000000000000000000000000000003B
:10557000000000000000000000000000000000002B
:10558000000000000000000000000000000000001B
:10559000000000000000000000000000000000000B
:1055A00000000000000000000000000000000002F9
:1055B00002020202020202020101010000000000D8
:1055C00000000000000000000101010101010100D4
:1055D00000000000000000000000000000000000CB
:1055E00000000000000000000000000000000000BB
:1055F00000000000000000000000000000000000AB
:10560000000000000000000000000000000000009A
:10561000000000000000000000000000000000008A
:10562000000000000000000000000000000000007A
:10563000000000000000000000000000000000006A
:10564000000000000000000000000000000000005A
:10565000000000000000000000000000000000004A
:10566000000000000000000000000000000000003A
:10567000000000000000000000000000000000002A
:10568000000000000000000000000000000000001A
:10569000000000000000000000000000000000000A
:1056A00000000000000000000000000000000002F8
:1056B00002020202020202020101010000000000D7
:1056C00000000000000000010101010101010100D2
:1056D00000000000000000000000000000000000CA
:1056E00000000000000000000000000000000000BA
:1056F00000000000000000000000000000000000AA
:105700000000000000000000000000000000000099
:105710000000000000000000000000000000000089
:105720000000000000000000000000000000000079
:105730000000000000000000000000000000000069
:105740000000000000000000000000000000000059
:105750000000000000000000000000000000000049
:105760000000000000000000000000000000000039
:105770000000000000000000000000000000000029
:105780000000000000000000000000000000000019
:105790000000000000000000000000000000000009
:1057A00000000000000000000000000000000002F7
:1057B00002020202020202020201010000000000D5
:1057C00000000000000000010101010101010100D1
:1057D00000000000000000000000000000000000C9
:1057E00000000000000000000000000000000000B9
:1057F00000000000000000000000000000000000A9
:105800000000000000000000000000000000000098
:105810000000000000000000000000000000000088
:105820000000000000000000000000000000000078
:105830000000000000000000000000000000000068
:105840000000000000000000000000000000000058
:105850000000000000000000000000000000000048
:105860000000000000000000000000000000000038
:105870000000000000000000000000000000000028
:105880000000000000000000000000000000000018
:105890000000000000000000000000000000000008
:1058A00000000000000000000000000000000002F6
:1058B00002020202020202020202010000000000D3
:1058C00000000000000001010101010101010100CF
:1058D00000000000000000000000000000000000C8
:1058E00000000000000000000000000000000000B8
:1058F00000000000000000000000000000000000A8
:105900000000000000000000000000000000000097
:105910000000000000000000000000000000000087
:105920000000000000000000000000000000000077
:105930000000000000000000000000000000000067
:105940000000000000000000000000000000000057
:105950000000000000000000000000000000000047
:105960000000000000000000000000000000000037
:105970000000000000000000000000000000000027
:105980000000000000000000000000000000000017
:105990000000000000000000000000000000000007
:1059A00000000000000000000000000000000002F5
:1059B00002020202020202020202020000000000D1
:1059C00000000000000001010101010101010100CE
:1059D00000000000000000000000000000000000C7
:1059E00000000000000000000000000000000000B7
:1059F00000000000000000000000000000000000A7
:105A00000000000000000000000000000000000096
:105A10000000000000000000000000000000000086
:105A20000000000000000000000000000000000076
:105A30000000000000000000000000000000000066
:105A40000000000000000000000000000000000056
:105A50000000000000000000000000000000000046
:105A60000000000000000000000000000000000036
:105A70000000000000000000000000000000000026
:105A80000000000000000000000000000000000016
:105A90000000000000000000000000000000000006
:105AA00000000000000000000000000000000002F4
:105AB00002020202020202020202020100000000CF
:105AC00000000000000101010101010101010100CC
:105AD00000000000000000000000000000000000C6
:105AE00000000000000000000000000000000000B6
:105AF00000000000000000000000000000000000A6
:105B00000000000000000000000000000000000095
:105B10000000000000000000000000000000000085
:105B20000000000000000000000000000000000075
:105B30000000000000000000000000000000000065
:105B40000000000000000000000000000000000055
:105B50000000000000000000000000000000000045
:105B60000000000000000000000000000000000035
:105B70000000000000000000000000000000000025
:105B80000000000000000000000000000000000015
:105B90000000000000000000000000000000000005
:105BA00000000000000000000000000000000002F3
:105BB00002020202020202020202020100000000CE
:105BC00000000000000101010101010101010100CB
:105BD00000000000000000000000000000000000C5
:105BE00000000000000000000000000000000000B5
:105BF00000000000000000000000000000000000A5
:105C00000000000000000000000000000000000094
:105C10000000000000000000000000000000000084
:105C20000000000000000000000000000000000074
:105C30000000000000000000000000000000000064
:105C40000000000000000000000000000000000054
:105C50000000000000000000000000000000000044
:105C60000000000000000000000000000000000034
:105C70000000000000000000000000000000000024
:105C80000000000000000000000000000000000014
:105C90000000000000000000000000000000000004
:105CA00000000000000000000000000000000002F2
:105CB00002020202020202020202020101000000CC
:105CC00000000000000101010101010101010100CA
:105CD00000000000000000000000000000000000C4
:105CE00000000000000000000000000000000000B4
:105CF00000000000000000000000000000000000A4
:105D00000000000000000000000000000000000093
:105D10000000000000000000000000000000000083
:105D20000000000000000000000000000000000073
:105D30000000000000000000000000000000000063
:105D40000000000000000000000000000000000053
:105D50000000000000000000000000000000000043
:105D60000000000000000000000000000000000033
:105D70000000000000000000000000000000000023
:105D80000000000000000000000000000000000013
:105D90000000000000000000000000000000000003
:105DA00000000000000000000000000000000002F1
:105DB00002020202020202020202020201010000C9
:105DC00000000000010101010101010101010100C8
:105DD00000000000000000000000000000000000C3
:105DE00000000000000000000000000000000000B3
:105DF00000000000000000000000000000000000A3
:105E00000000000000000000000000000000000092
:105E10000000000000000000000000000000000082
:105E20000000000000000000000000000000000072
:105E30000000000000000000000000000000000062
:105E40000000000000000000000000000000000052
:105E50000000000000000000000000000000000042
:105E60000000000000000000000000000000000032
:105E70000000000000000000000000000000000022
:105E80000000000000000000000000000000000012
:105E90000000000000000000000000000000000002
:105EA00000000000000000000000000000000002F0
:105EB00002020202020202020202020201010000C8
:105EC00000000000010101010101010101010100C7
:105ED00000000000000000000000000000000000C2
:105EE00000000000000000000000000000000000B2
:105EF00000000000000000000000000000000000A2
:105F00000000000000000000000000000000000091
:105F10000000000000000000000000000000000081
:105F20000000000000000000000000000000000071
:105F30000000000000000000000000000000000061
:105F40000000000000000000000000000000000051
:105F50000000000000000000000000000000000041
:105F60000000000000000000000000000000000031
:105F70000000000000000000000000000000000021
:105F80000000000000000000000000000000000011
:105F90000000000000000000000000000000000001
:105FA00000000000000000000000000000000002EF
:105FB00002020202020202020202020202010000C6
:105FC00000000001010101010101010101010100C5
:105FD00000000000000000000000000000000000C1
:105FE00000000000000000000000000000000000B1
:105FF00000000000000000000000000000000000A1
:106000000000000000000000000000000000000090
:106010000000000000000000000000000000000080
:106020000000000000000000000000000000000070
:106030000000000000000000000000000000000060
:106040000000000000000000000000000000000050
:106050000000000000000000000000000000000040
:106060000000000000000000000000000000000030
:106070000000000000000000000000000000000020
:106080000000000000000000000000000000000010
:106090000000000000000000000000000000000000
:1060A00000000000000000000000000000000002EE
:1060B00002020202020202020202020202010000C5
:1060C00000000001010101010101010101010100C4
:1060D00000000000000000000000000000000000C0
:1060E00000000000000000000000000000000000B0
:1060F00000000000000000000000000000000000A0
:10610000000000000000000000000000000000008F
:10611000000000000000000000000000000000007F
:10612000000000000000000000000000000000006F
:10613000000000000000000000000000000000005F
:10614000000000000000000000000000000000004F
:10615000000000000000000000000000000000003F
:10616000000000000000000000000000000000002F
:10617000000000000000000000000000000000001F
:10618000000000000000000000000000000000000F
:1061900000000000000000000000000000000000FF
:1061A00000000000000000000000000000000002ED
:1061B00002020202020202020202020202010000C4
:1061C00000000001010101010101010101010100C3
:1061D00000000000000000000000000000000000BF
:1061E00000000000000000000000000000000000AF
:1061F000000000000000000000000000000000009F
:10620000000000000000000000000000000000008E
:10621000000000000000000000000000000000007E
:10622000000000000000000000000000000000006E
:10623000000000000000000000000000000000005E
:10624000000000000000000000000000000000004E
:10625000000000000000000000000000000000003E
:10626000000000000000000000000000000000002E
:10627000000000000000000000000000000000001E
:10628000000000000000000000000000000000000E
:1062900000000000000000000000000000000000FE
:1062A00000000000000000000000000000000002EC
:1062B00002020202020202020202020202010000C3
:1062C00000000101010101010101010101010100C1
:1062D00000000000000000000000000000000000BE
:1062E00000000000000000000000000000000000AE
:1062F000000000000000000000000000000000009E
:10630000000000000000000000000000000000008D
:10631000000000000000000000000000000000007D
:10632000000000000000000000000000000000006D
:10633000000000000000000000000000000000005D
:10634000000000000000000000000000000000004D
:10635000000000000000000000000000000000003D
:10636000000000000000000000000000000000002D
:10637000000000000000000000000000000000001D
:10638000000000000000000000000000000000000D
:1063900000000000000000000000000000000000FD
:1063A00000000000000000000000000000000002EB
:1063B00002020202020202020202020202020000C1
:1063C00000000101010101010101010101010100C0
:1063D00000000000000000000000000000000000BD
:1063E00000000000000000000000000000000000AD
:1063F000000000000000000000000000000000009D
:10640000000000000000000000000000000000008C
:10641000000000000000000000000000000000007C
:10642000000000000000000000000000000000006C
:10643000000000000000000000000000000000005C
:10644000000000000000000000000000000000004C
:10645000000000000000000000000000000000003C
:10646000000000000000000000000000000000002C
:10647000000000000000000000000000000000001C
:10648000000000000000000000000000000000000C
:1064900000000000000000000000000000000000FC
:1064A00000000000000000000000000000000002EA
:1064B00002020202020202020202020202020000C0
:1064C00000000101010101010101010101010100BF
:1064D00000000000000000000000000000000000BC
:1064E00000000000000000000000000000000000AC
:1064F000000000000000000000000000000000009C
:10650000000000000000000000000000000000008B
:10651000000000000000000000000000000000007B
:10652000000000000000000000000000000000006B
:10653000000000000000000000000000000000005B
:10654000000000000000000000000000000000004B
:10655000000000000000000000000000000000003B
:10656000000000000000000000000000000000002B
:10657000000000000000000000000000000000001B
:10658000000000000000000000000000000000000B
:1065900000000000000000000000000000000000FB
:1065A00000000000000000000000000000000002E9
:1065B00002020202020202020202020202020000BF
:1065C00000010101010101010101010101010100BD
:1065D00000000000000000000000000000000000BB
:1065E00000000000000000000000000000000000AB
:1065F000000000000000000000000000000000009B
:10660000000000000000000000000000000000008A
:10661000000000000000000000000000000000007A
:10662000000000000000000000000000000000006A
:10663000000000000000000000000000000000005A
:10664000000000000000000000000000000000004A
:10665000000000000000000000000000000000003A
:10666000000000000000000000000000000000002A
:10667000000000000000000000000000000000001A
:10668000000000000000000000000000000000000A
:1066900000000000000000000000000000000000FA
:1066A00000000000000000000000000000000002E8
:1066B00002020202020202020202020202020000BE
:1066C00000010101010101010101010101010100BC
:1066D00000000000000000000000000000000000BA
:1066E00000000000000000000000000000000000AA
:1066F000000000000000000000000000000000009A
:106700000000000000000000000000000000000089
:106710000000000000000000000000000000000079
:106720000000000000000000000000000000000069
:106730000000000000000000000000000000000059
:106740000000000000000000000000000000000049
:106750000000000000000000000000000000000039
:106760000000000000000000000000000000000029
:106770000000000000000000000000000000000019
:106780000000000000000000000000000000000009
:1067900000000000000000000000000000000000F9
:1067A00000000000000000000000000000000002E7
:1067B00002020202020202020202020202020000BD
:1067C00001010101010101010101010101010100BA
:1067D00000000000000000000000000000000000B9
:1067E00000000000000000000000000000000000A9
:1067F0000000000000000000000000000000000099
:106800000000000000000000000000000000000088
:106810000000000000000000000000000000000078
:106820000000000000000000000000000000000068
:106830000000000000000000000000000000000058
:106840000000000000000000000000000000000048
:106850000000000000000000000000000000000038
:106860000000000000000000000000000000000028
:106870000000000000000000000000000000000018
:106880000000000000000000000000000000000008
:1068900000000000000000000000000000000000F8
:1068A00000000000000000000000000000000002E6
:1068B00002020202020202020202020202020000BC
:1068C00001010101010101010101010101010100B9
:1068D00000000000000000000000000000000000B8
:1068E00000000000000000000000000000000000A8
:1068F0000000000000000000000000000000000098
:106900000000000000000000000000000000000087
:106910000000000000000000000000000000000077
:106920000000000000000000000000000000000067
:106930000000000000000000000000000000000057
:106940000000000000000000000000000000000047
:106950000000000000000000000000000000000037
:106960000000000000000000000000000000000027
:106970000000000000000000000000000000000017
:106980000000000000000000000000000000000007
:1069900000000000000000000000000000000000F7
:1069A00000000000000000000000000000000002E5
:1069B00002020202020202020202020202020000BB
:1069C00001010101010101010101010101010100B8
:1069D00000000000000000000000000000000000B7
:1069E00000000000000000000000000000000000A7
:1069F0000000000000000000000000000000000097
:106A00000000000000000000000000000000000086
:106A10000000000000000000000000000000000076
:106A20000000000000000000000000000000000066
:106A30000000000000000000000000000000000056
:106A40000000000000000000000000000000000046
:106A50000000000000000000000000000000000036
:106A60000000000000000000000000000000000026
:106A70000000000000000000000000000000000016
:106A80000000000000000000000000000000000006
:106A900000000000000000000000000000000000F6
:106AA00000000000000000000000000000000002E4
:106AB00002020202020202020202020202020000BA
:106AC00001010101010101010101010101010100B7
:106AD00000000000000000000000000000000000B6
:106AE00000000000000000000000000000000000A6
:106AF0000000000000000000000000000000000096
:106B00000000000000000000000000000000000085
:106B10000000000000000000000000000000000075
:106B20000000000000000000000000000000000065
:106B30000000000000000000000000000000000055
:106B40000000000000000000000000000000000045
:106B50000000000000000000000000000000000035
:106B60000000000000000000000000000000000025
:106B70000000000000000000000000000000000015
:106B80000000000000000000000000000000000005
:106B900000000000000000000000000000000000F5
:106BA00000000000000000000000000000000002E3
:106BB00002020202020202020202020202020000B9
:106BC00001010101010101010101010101010100B6
:106BD00000000000000000000000000000000000B5
:106BE00000000000000000000000000000000000A5
:106BF0000000000000000000000000000000000095
:106C00000000000000000000000000000000000084
:106C10000000000000000000000000000000000074
:106C20000000000000000000000000000000000064
:106C30000000000000000000000000000000000054
:106C40000000000000000000000000000000000044
:106C50000000000000000000000000000000000034
:106C60000000000000000000000000000000000024
:106C70000000000000000000000000000000000014
:106C80000000000000000000000000000000000004
:106C900000000000000000000000000000000000F4
:106CA00000000000000000000000000000000002E2
:106CB00002020202020202020202020202020000B8
:106CC00001010101010101010101010101010100B5
:106CD00000000000000000000000000000000000B4
:106CE00000000000000000000000000000000000A4
:106CF0000000000000000000000000000000000094
:106D00000000000000000000000000000000000083
:106D10000000000000000000000000000000000073
:106D20000000000000000000000000000000000063
:106D30000000000000000000000000000000000053
:106D40000000000000000000000000000000000043
:106D50000000000000000000000000000000000033
:106D60000000000000000000000000000000000023
:106D70000000000000000000000000000000000013
:106D80000000000000000000000000000000000003
:106D900000000000000000000000000000000000F3
:106DA00000000000000000000000000000000002E1
:106DB00002020202020202020202020202020000B7
:106DC00001010101010101010101010101010100B4
:106DD00000000000000000000000000000000000B3
:106DE00000000000000000000000000000000000A3
:106DF0000000000000000000000000000000000093
:106E00000000000000000000000000000000000082
:106E10000000000000000000000000000000000072
:106E20000000000000000000000000000000000062
:106E30000000000000000000000000000000000052
:106E40000000000000000000000000000000000042
:106E50000000000000000000000000000000000032
:106E60000000000000000000000000000000000022
:106E70000000000000000000000000000000000012
:106E80000000000000000000000000000000000002
:106E900000000000000000000000000000000000F2
:106EA00000000000000000000000000000000002E0
:106EB00002020202020202020202020202020000B6
:106EC00000000000000000000000000000000000C2
:106ED00000000000000000000000000000000000B2
:106EE00000000000000000000000000000000000A2
:106EF0000000000000000000000000000000000092
:106F00000000000000000000000000000000000081
:106F10000000000000000000000000000000000071
:106F20000000000000000000000000000000000061
:106F30000000000000000000000000000000000051
:106F40000000000000000000000000000000000041
:106F50000000000000000000000000000000000031
:106F60000000000000000000000000000000000021
:106F70000000000000000000000000000000000011
:106F80000000000000000000000000000000000001
:106F900000000000000000000000000000000000F1
:106FA00000000000000000000000000000000000E1
:106FB0000000000000000000000000000000002AA7
:106FC00000000000000000000000000000000000C1
:106FD00000000000000001000000000000000000B0
:106FE00000000000000000000000000000000000A1
:106FF0000000000000000000000000000000000091
:107000000000000000000000000000000000000080
:107010000000000000000000000000000000000070
:107020000000000000000000000000000000000060
:107030000000000000000000000000000000000050
:107040000000000000000000000000000000000040
:107050000000000000000000000000000000000030
:107060000000000000000000000000000000000020
:107070000000000000000000000000000000000010
:107080000000000000000000000000000000000000
:1070900000000000000000000000000000000000F0
:1070A00000000000000000000000000000000000E0
:1070B00000000000000000020000000000000000CE
:1070C00000000000000000000000000000000000C0
:1070D00000000000000001000000000000000000AF
:1070E00000000000000000000000000000000000A0
:1070F0000000000000000000000000000000000090
:10710000000000000000000000000000000000007F
:10711000000000000000000000000000000000006F
:10712000000000000000000000000000000000005F
:10713000000000000000000000000000000000004F
:10714000000000000000000000000000000000003F
:10715000000000000000000000000000000000002F
:10716000000000000000000000000000000000001F
:10717000000000000000000000000000000000000F
:1071800000000000000000000000000000000000FF
:1071900000000000000000000000000000000000EF
:1071A00000000000000000000000000000000000DF
:1071B00000000000000000020000000000000000CD
:1071C00000000000000000000000000000000000BF
:1071D00000000000000001000000000000000000AE
:1071E000000000000000000000000000000000009F
:1071F000000000000000000000000000000000008F
:10720000000000000000000000000000000000007E
:10721000000000000000000000000000000000006E
:10722000000000000000000000000000000000005E
:10723000000000000000000000000000000000004E
:10724000000000000000000000000000000000003E
:10725000000000000000000000000000000000002E
:10726000000000000000000000000000000000001E
:10727000000000000000000000000000000000000E
:1072800000000000000000000000000000000000FE
:1072900000000000000000000000000000000000EE
:1072A00000000000000000000000000000000000DE
:1072B00000000000000000020000000000000000CC
:1072C00000000000000000000000000000000000BE
:1072D00000000000000001000000000000000000AD
:1072E000000000000000000000000000000000009E
:1072F000000000000000000000000000000000008E
:10730000000000000000000000000000000000007D
:10731000000000000000000000000000000000006D
:10732000000000000000000000000000000000005D
:10733000000000000000000000000000000000004D
:10734000000000000000000000000000000000003D
:10735000000000000000000000000000000000002D
:10736000000000000000000000000000000000001D
:10737000000000000000000000000000000000000D
:1073800000000000000000000000000000000000FD
:1073900000000000000000000000000000000000ED
:1073A00000000000000000000000000000000000DD
:1073B00000000000000000020200000000000000C9
:1073C00000000000000000000000000000000000BD
:1073D00000000000000001000000000000000000AC
:1073E000000000000000000000000000000000009D
:1073F000000000000000000000000000000000008D
:10740000000000000000000000000000000000007C
:10741000000000000000000000000000000000006C
:10742000000000000000000000000000000000005C
:10743000000000000000000000000000000000004C
:10744000000000000000000000000000000000003C
:10745000000000000000000000000000000000002C
:10746000000000000000000000000000000000001C
:10747000000000000000000000000000000000000C
:1074800000000000000000000000000000000000FC
:1074900000000000000000000000000000000000EC
:1074A00000000000000000000000000000000000DC
:1074B00000000000000000020200000000000000C8
:1074C00000000000000000000000000000000000BC
:1074D00000000000000001000000000000000000AB
:1074E000000000000000000000000000000000009C
:1074F000000000000000000000000000000000008C
:10750000000000000000000000000000000000007B
:10751000000000000000000000000000000000006B
:10752000000000000000000000000000000000005B
:10753000000000000000000000000000000000004B
:10754000000000000000000000000000000000003B
:10755000000000000000000000000000000000002B
:10756000000000000000000000000000000000001B
:10757000000000000000000000000000000000000B
:1075800000000000000000000000000000000000FB
:1075900000000000000000000000000000000000EB
:1075A00000000000000000000000000000000000DB
:1075B00000000000000000020200000000000000C7
:1075C00000000000000000000000000000000000BB
:1075D00000000000000001000000000000000000AA
:1075E000000000000000000000000000000000009B
:1075F000000000000000000000000000000000008B
:10760000000000000000000000000000000000007A
:10761000000000000000000000000000000000006A
:10762000000000000000000000000000000000005A
:10763000000000000000000000000000000000004A
:10764000000000000000000000000000000000003A
:10765000000000000000000000000000000000002A
:10766000000000000000000000000000000000001A
:10767000000000000000000000000000000000000A
:1076800000000000000000000000000000000000FA
:1076900000000000000000000000000000000000EA
:1076A00000000000000000000000000000000000DA
